:100000000C9456000C9475000C9475000C947500BB
:100010000C9475000C9475000C9475000C9475008C
:100020000C9475000C9475000C9475000C9475007C
:100030000C9475000C94B3000C9475000C9475002E
:100040000C9475000C9475000C9475000C9475005C
:100050000C9475000C9475000C9475000C9475004C
:100060000C9475000C9475000C9475000C9475003C
:100070000C9475000C9475000C9475000C9475002C
:100080000C9475000C9475000C9475001F012601EA
:100090002D014E016401AB018701CE010002030274
:1000A00006021702090210021B021B0211241FBEC6
:1000B000CFEFD0E4DEBFCDBF11E0A0E0B1E0EAE7D2
:1000C000F4E000E00BBF02C007900D92A231B1072F
:1000D000D9F721E0A2E1B1E001C01D92AA31B20737
:1000E000E1F70E941C020C943B020C940000CF9399
:1000F000C82F8A3019F48DE00E9477008091C000EB
:1001000085FFFCCFC093C60080E090E0CF910895BA
:1001100081E08093160108958BE0809381008DE744
:1001200090E0909389008093880082E080936F0034
:10013000109285001092840080910001909101013D
:10014000A0910201B09103018093120190931301D9
:10015000A0931401B09315018FB780688FBF0895E5
:100160001092810008951F920F920FB60F921124E2
:100170000BB60F922F933F934F935F936F937F93A1
:100180008F939F93AF93BF93EF93FF93809112014F
:1001900090911301A0911401B09115010197A1094B
:1001A000B1098093120190931301A0931401B093AD
:1001B0001501892B8A2B8B2B91F40E94880080914A
:1001C000000190910101A0910201B091030180937F
:1001D000120190931301A0931401B0931501FF91A4
:1001E000EF91BF91AF919F918F917F916F915F91AF
:1001F0004F913F912F910F900BBE0F900FBE0F901C
:100200001F90189560930001709301018093020183
:100210009093030160931201709313018093140172
:10022000909315010895E0911801F0911901E830BB
:10023000F10508F0D6C0EA5BFF4F0C94320281E072
:1002400090E09093190180931801CFC082E090E074
:100250009093190180931801C8C080B190E08095F7
:10026000909583709927039739F483E090E09093F9
:10027000190180931801B9C0009907C086E090E089
:100280009093190180931801B0C00199AEC087E026
:1002900090E09093190180931801A7C080B190E07D
:1002A0008095909583709927039739F483E090E0C7
:1002B000909319018093180198C082E090E0909388
:1002C00019018093180191C0809117018A3048F07C
:1002D0001092170186E090E0909319018093180125
:1002E00084C080B190E080959095837099270197A4
:1002F00039F484E090E0909319018093180175C05F
:1003000082E090E090931901809318016EC080B153
:1003100090E080959095837099270197A9F480913A
:1003200017018F5F8093170126E030E030931901A9
:10033000209318018A3008F458C084E090E090932C
:1003400019018093180151C084E090E09093190145
:10035000809318014AC0809117018A3048F01092AA
:10036000170187E090E090931901809318013DC038
:1003700080B190E08095909583709927029739F429
:1003800085E090E090931901809318012EC082E0DF
:1003900090E0909319018093180127C080B190E0FC
:1003A00080959095837099270297A1F487E090E05B
:1003B0009093190180931801809117018F5F8093AA
:1003C00017018A3090F085E090E0909319018093B6
:1003D00018010BC085E090E09093190180931801FB
:1003E00004C01092190110921801E0911801F091C7
:1003F0001901E830F105E8F4E25BFF4F0C9432029A
:1004000087E085B9089587E085B9089510921701AE
:10041000089585B1893078F485B18F5F85B90895E5
:1004200085B1882341F085B1815085B9089515B80B
:10043000089587E085B9089511B88FEF82B984B91E
:1004400015B864E670E080E090E00E9402010E942E
:100450008C000E941301809116018823E1F3109211
:100460001601F7CFEE0FFF1F0024001C0BBE0790F4
:0A047000F691E02D0994F894FFCFF7
:10047A0001000000000000020000000077000000F8
:02048A00000070
:00000001FF
