:100000000C9446000C9465000C9465000C946500FB
:100010000C9465000C9465000C9465000C946500CC
:100020000C9465000C9465000C9465000C946500BC
:100030000C9465000C94B4000C9465000C9465005D
:100040000C9465000C9465000C9465000C9465009C
:100050000C9465000C9465000C9465000C9465008C
:100060000C9465000C9465000C9465000C9465007C
:100070000C9465000C9465000C9465000C9465006C
:100080000C9465000C9465000C94650011241FBE4F
:10009000CFEFD0E4DEBFCDBF11E0A0E0B1E0E2E5FC
:1000A000F6E000E00BBF02C007900D92A231B1074D
:1000B000D9F721E0A2E1B1E001C01D92AB32B20755
:1000C000E1F70E94F5020C9427030C940000CF93F3
:1000D000C82F8A3019F48DE00E9467008091C0001B
:1000E00085FFFCCFC093C60080E090E0CF910895DB
:1000F00060930001709301018093020190930301CA
:1001000060931C0170931D0180931E0190931F0149
:1001100008958BE0809381008DE790E090938900B3
:100120008093880082E080936F0010928500109287
:1001300084008091000190910101A0910201B09191
:10014000030180931C0190931D01A0931E01B093A5
:100150001F018FB780688FBF0895109281000895A6
:1001600081E08093200108951F920F920FB60F92A5
:1001700011240BB60F922F933F934F935F936F937E
:100180007F938F939F93AF93BF93EF93FF93809150
:100190001C0190911D01A0911E01B0911F010197BA
:1001A000A109B10980931C0190931D01A0931E0128
:1001B000B0931F01892B8A2B8B2B91F40E94B000E6
:1001C0008091000190910101A0910201B091030181
:1001D00080931C0190931D01A0931E01B0931F01F9
:1001E000FF91EF91BF91AF919F918F917F916F910F
:1001F0005F914F913F912F910F900BBE0F900FBECB
:100200000F901F90189580912301909124010097E1
:1002100019F00197A1F018C080911B01893040F4BA
:100220008F5F80931B01109224011092230110C054
:1002300081E090E0909324018093230109C0109203
:1002400024011092230104C0109224011092230172
:100250008091230190912401009719F0019721F0DA
:10026000089510921A01089581E080931A01109266
:100270001B0108958091270190912801009719F0A2
:10028000019799F024C0809119018B3048F081E0EA
:1002900090E09093280180932701109219011BC0D0
:1002A000109228011092270116C0809119018B30FD
:1002B00038F01092280110922701109219010BC0FA
:1002C00081E090E0909328018093270104C0109270
:1002D0002801109227018091270190912801009711
:1002E00019F0019789F0089580B1869586958695D5
:1002F00031F0809119018F5F8093190102C0109233
:10030000190110921801089580B1869586958695F9
:1003100019F01092190105C0809119018F5F809327
:10032000190181E08093180108958091290190912D
:100330002A01009719F00197C9F01CC080B1869579
:100340008695869590E02091160130911701281727
:1003500039073CF481E090E090932A0180932901D1
:1003600009C010922A011092290104C010922A019A
:10037000109229018091290190912A01019749F455
:1003800080B186958695869590E09093170180932D
:10039000160108958091250190912601009721F082
:1003A000019709F4B6C0BAC080911401882339F0CE
:1003B00081E090E09093260180932501B3C090B135
:1003C000977081F42091120130911301243031058E
:1003D00009F0A8C08F5F809314011092260110923B
:1003E0002501A0C090B19770913081F42091120145
:1003F000309113012530310509F094C08F5F80934F
:10040000140110922601109225018CC090B19770B2
:10041000923081F420911201309113012630310580
:1004200009F080C08F5F8093140110922601109212
:10043000250178C090B19770933081F4209112011A
:10044000309113012730310509F06CC08F5F809324
:100450001401109226011092250164C090B197708A
:10046000943079F42091120130911301232B09F07B
:1004700059C08F5F809314011092260110922501BC
:1004800051C090B19770953081F420911201309154
:1004900013012130310509F045C08F5F80931401AD
:1004A00010922601109225013DC090B197709630B0
:1004B00079F420911201309113012230310591F528
:1004C0008F5F8093140110922601109225012AC09B
:1004D00090B19770973079F4209112013091130107
:1004E00023303105F9F48F5F8093140110922601B7
:1004F0001092250117C01092140180B1877090E00E
:1005000090931301809312011092260110922501FD
:1005100009C0109226011092250104C010922601F4
:10052000109225018091250190912601009719F0E4
:10053000019721F0089510921501089581E08093AC
:1005400015011092140180B1877090E0909313010F
:100550008093120108958091210190912201892BAD
:1005600029F4109222011092210104C0109222015C
:10057000109221018091210190912201892BA1F5F6
:10058000909118019130F9F42091160130911701E2
:10059000A901440F551F440F551F440F551F30919B
:1005A0001501232F30E0220F331F220F331F892F15
:1005B00090E0880F991F242B822B90911A01917043
:1005C000892B85B908952091150130E0220F331F42
:1005D000220F331F892F90E0880F991F90911A01E5
:1005E0009170822B892B85B9089511B88FEF82B94C
:1005F00084B915B864E670E080E090E00E9478006D
:100600000E94890010922401109223011092280167
:100610001092270110922A011092290110922601AE
:100620001092250110922201109221010E940301D3
:100630000E943A010E9495010E94CA010E94AB02E9
:10064000809120018823E1F310922001EFCFF894EC
:02065000FFCFDA
:10065200010000000000000200000000670000002E
:02066200000096
:00000001FF
