:100000000C9446000C945D000C945D000C945D0013
:100010000C945D000C945D000C945D000C945D00EC
:100020000C945D000C945D000C945D000C945D00DC
:100030000C945D000C945D000C945D000C945D00CC
:100040000C945D000C945D000C945D000C945D00BC
:100050000C945D000C945D000C945D000C945D00AC
:100060000C945D000C945D000C945D000C945D009C
:100070000C945D000C945D000C945D000C945D008C
:100080000C945D000C945D000C945D0011241FBE67
:10009000CFEFD0E4DEBFCDBF11E0A0E0B1E0ECE9EE
:1000A000F1E000E00BBF02C007900D92AE30B10747
:1000B000D9F70E9470000C94CC000C940000CF93F0
:1000C000C82F8A3019F48DE00E945F008091C00033
:1000D00085FFFCCFC093C60080E090E0CF910895EB
:1000E00011B88FEF82B987B918B880B18095982F71
:1000F0009D709D3091F1982F9E709E3081F1982FC8
:100100009F709F3071F1982F9A709A3061F1982FFB
:100110009B709B3051F1982F9C709C3041F1982F2F
:100120009770973031F183FD26C0982F99709930E0
:1001300021F1982F9570953011F1982F9670963087
:1001400001F1982F93709330F1F082FD1EC080FD75
:100150001EC081FF1EC080E61DC08FE31BC08FE361
:1001600019C08FE317C08EE315C08EE313C08EE372
:1001700011C08CE30FC08CE30DC08CE30BC088E38F
:1001800009C088E307C080E705C080E703C080E6B8
:0C01900001C080E488B9A9CFF894FFCF2B
:0E019C0000000002000000005F0000000000F4
:00000001FF
