:100000000C948B000C94AA000C94AA000C94AA00E7
:100010000C94AA000C94AA000C94AA000C94AA00B8
:100020000C94AA000C94AA000C94AA000C94AA00A8
:100030000C94AA000C94A7010C94AA000C94AA009A
:100040000C94AA000C94AA000C94AA000C94AA0088
:100050000C94AA000C94AA000C94AA000C94AA0078
:100060000C94AA000C94AA000C94AA000C94AA0068
:100070000C94AA000C94AA000C94AA000C94AA0058
:100080000C94AA000C94AA000C94AA00DE0221038E
:100090002103210321032103210321032103210340
:1000A0002103210321032103210321032103210330
:1000B0002103210321032103210321032103210320
:1000C0002103210321032103210321032103210310
:1000D00021031D0321032103210321032103210304
:1000E0001603210321032103210321031A03E20242
:1000F000E602EA02EE02F202F602FA02FE0202034F
:1001000021032103210321032103210321030603EA
:100110000A030E03120311241FBECFEFD0E4DEBF8B
:10012000CDBF11E0A0E0B1E0EEE3F8E000E00BBFEE
:1001300002C007900D92AA35B107D9F721E0AAE5D0
:10014000B1E001C01D92A738B207E1F70E94570342
:100150000C941D040C94000040E050E00CC0000022
:100160002F5F3F4F02C020E030E0273063E03607CA
:10017000B4F34F5F5F4F48175907ACF308959BB135
:100180009F7B9BB982B98BB180688BB900008BB122
:100190008F778BB982E090E00E94AC00089581E0F7
:1001A0000E94BF000895813120F481580E94BF0051
:1001B000089581550E94BF00089584E690E00E9452
:1001C000AC0088E30E94BF0086E00E94BF008FE081
:1001D0000E94BF0081E00E94BF008AE090E00E9480
:1001E000AC0008959BB190649BB982B98BB18068D3
:1001F0008BB900008BB18F778BB981E090E00E94C2
:10020000AC000895EF92FF920F931F93CF93DF936B
:10021000182FEB010E94CF000EC001E0010F812FCB
:100220000E94D3007E018FEFE81AF80A88810E94AD
:10023000F200102FE70188818111EFCFDF91CF917C
:100240001F910F91FF90EF900895CF93C82F8A30A0
:1002500019F48DE00E9425018091C00085FFFCCF3C
:10026000C093C60080E090E0CF910895CF93DF93D4
:10027000EC01009719F0019721F008C0C1E0D0E02F
:100280000AC080915A018F3121F405C0C0E0D0E04E
:1002900002C0C2E0D0E0C130D10521F0C230D105AA
:1002A00031F015C0809100010E94D30010C08091F0
:1002B0005B0190E00E94F20080910001803120F00B
:1002C00081E08093000103C08F5F80930001CE0125
:1002D000DF91CF910895609344017093450180931D
:1002E00046019093470160935C0170935D01809398
:1002F0005E0190935F0108958BE0809381008DE70C
:1003000090E0909389008093880082E080936F0052
:1003100010928500109284008091440190914501D3
:10032000A0914601B091470180935C0190935D01DB
:10033000A0935E01B0935F018FB780688FBF08956F
:1003400010928100089581E08093600108951F92CA
:100350000F920FB60F9211240BB60F922F933F936B
:100360004F935F936F937F938F939F93AF93BF93BD
:10037000EF93FF9380915C0190915D01A0915E01EC
:10038000B0915F010197A109B10980935C0190933D
:100390005D01A0935E01B0935F01892B8A2B8B2BAB
:1003A00091F40E94A3018091440190914501A09194
:1003B0004601B091470180935C0190935D01A09349
:1003C0005E01B0935F01FF91EF91BF91AF919F915B
:1003D0008F917F916F915F914F913F912F910F90EE
:1003E0000BBE0F900FBE0F901F901895442349F03D
:1003F00021E030E002C0220F331F6A95E2F7822B22
:10040000089521E030E002C0220F331F6A95E2F721
:1004100020958223089521E030E002C0220F331F8F
:100420006A95E2F78223089540E064E08FEF0E942E
:10043000F60188B9000086B160E080950E940B0249
:10044000811180C086B161E080950E940B0281110C
:100450007BC086B162E080950E940B02811176C05C
:1004600086B163E080950E940B02811171C040E06B
:1004700065E08FEF0E94F60188B9000086B160E068
:1004800080950E940B02811165C086B161E0809564
:100490000E940B02811160C086B162E080950E94CB
:1004A0000B0281115BC086B163E080950E940B0254
:1004B000811156C040E066E08FEF0E94F60188B9D6
:1004C000000086B160E080950E940B0281114AC055
:1004D00086B161E080950E940B02811145C086B112
:1004E00062E080950E940B02811140C086B163E0FA
:1004F00080950E940B0281113BC040E067E08FEFC6
:100500000E94F60188B9000086B160E080950E94E3
:100510000B0281112FC086B161E080950E940B0211
:1005200081112AC086B162E080950E940B02811180
:1005300025C086B163E080950E940B028823F9F004
:1005400084E4089581E3089584E3089587E308959A
:100550008AE2089582E3089585E3089588E3089583
:1005600080E3089583E3089586E3089589E3089579
:1005700083E2089581E4089582E4089583E4089570
:10058000CF93DF93EC010E941402E82F80935B016C
:10059000229718F481E090E002C080E090E0813082
:1005A000910509F054C04E2F50E04534510508F034
:1005B00048C0FA01EA5BFF4F0C9414042FE120932A
:1005C0005A0142C021E020935A013EC022E020930C
:1005D0005A013AC023E020935A0136C024E0209308
:1005E0005A0132C025E020935A012EC026E0209304
:1005F0005A012AC027E020935A0126C028E0209300
:100600005A0122C029E020935A011EC02AE02093FB
:100610005A011AC02BE020935A0116C02CE02093F7
:100620005A0112C02DE020935A010EC02EE02093F3
:100630005A010AC010925A0107C02FE020935A01B4
:1006400003C02BE120935A0120915A0125B9DF9173
:10065000CF9108950F931F93CF93DF93B62FA72FBA
:10066000F82FE92F022F132FD42FC52F04C0062FE8
:10067000172FD82FC92F6B2F7A2F8F2F9E2F202F18
:10068000312F4D2F5C2F0E94F203B02FA12FFD2F91
:10069000EC2F611571058105910549F7602F712FC8
:1006A0008D2F9C2FDF91CF911F910F910895CF93A4
:1006B000DF9300D000D0CDB7DEB78FEF81B912B88D
:1006C00084B915B890EF97B99FE098B98AB91BB86B
:1006D0000E94DD00ACE6B1E0BA83A983E1E6F1E077
:1006E000FC83EB831C924AE050E060E070E01196DE
:1006F0004D935D936D937C93149715964D935D93F5
:100700006D937C93189780EC92E01A969C938E934D
:100710001997108284E190E0A0E0B0E08183928399
:10072000A383B48385839683A783B08786E391E010
:10073000928781876AE070E080E090E00E946B0120
:100740000E947C0168E471E081E00E940201E12CDA
:10075000F12C3CC0F701EE0FFF1F81E090E08C0F01
:100760009D1FE80FF91F00811181D80115964D9149
:100770005D916D917C91189711968D919D910D9041
:10078000BC91A02D481759076A077B0781F4D8014F
:100790001996ED91FC911A978C91082E000C990BEB
:1007A0000995F80180831582168217821086F80158
:1007B00085819681A781B0850196A11DB11D858394
:1007C0009683A783B087FFEFEF1AFF0A82E0E8164F
:1007D000F10408F4BFCF809160018823E1F3109207
:1007E0006001B5CFA1E21A2EAA1BBB1BFD010DC0F3
:1007F000AA1FBB1FEE1FFF1FA217B307E407F507D1
:1008000020F0A21BB30BE40BF50B661F771F881FAC
:10081000991F1A9469F760957095809590959B0142
:10082000AC01BD01CF010895EE0FFF1F0024001C95
:0E0830000BBE0790F691E02D0994F894FFCFCF
:10083E0001202020202020202020202020202020C9
:10084E00435331323042206973204C6567656E64C4
:10085E002E2E2E207761697420666F7220697420A7
:10086E004441525921000000000200000000250101
:10087E000000000001000000436F6E677261747526
:0A088E006C6174696F6E7321000045
:00000001FF
