:100000000C9446000C9465000C9465000C946500FB
:100010000C9465000C9465000C9465000C946500CC
:100020000C9465000C9465000C9465000C946500BC
:100030000C9465000C94FA010C9465000C94650016
:100040000C9465000C9465000C9465000C9465009C
:100050000C9465000C9465000C9465000C9465008C
:100060000C9465000C9465000C9465000C9465007C
:100070000C9465000C9465000C9465000C9465006C
:100080000C9465000C9465000C94650011241FBE4F
:10009000CFEFD0E4DEBFCDBF11E0A0E0B1E0E0EFF4
:1000A000F7E000E00BBF02C007900D92AC35B1073E
:1000B000D9F721E0ACE5B1E001C01D92A837B20745
:1000C000E1F70E9440030C94F6030C94000040E01A
:1000D00050E00CC000002F5F3F4F02C020E030E036
:1000E000273063E03607B4F34F5F5F4F4817590777
:1000F000ACF308959BB19F7B9BB982B98BB18068AB
:100100008BB900008BB18F778BB982E090E00E94B1
:100110006700089581E00E947A000895813120F4FB
:1001200081580E947A00089581550E947A000895AE
:1001300084E690E00E94670088E30E947A0086E0EF
:100140000E947A008FE00E947A0081E00E947A008B
:100150008AE090E00E94670008959BB190649BB98B
:1001600082B98BB180688BB900008BB18F778BB966
:1001700081E090E00E9467000895EF92FF920F9354
:100180001F93CF93DF93182FEB010E948A000EC0BC
:1001900001E0010F812F0E948E007E018FEFE81A8F
:1001A000F80A88810E94AD00102FE7018881811133
:1001B000EFCFDF91CF911F910F91FF90EF900895B6
:1001C000CF93C82F8A3019F48DE00E94E00080910F
:1001D000C00085FFFCCFC093C60080E090E0CF91C7
:1001E0000895843091054CF48230910584F5009790
:1001F00041F08130910541F027C084309105C9F06C
:1002000023C081E090E028C023B130E020953095F4
:100210002370332721303105E9F023B130E02095F8
:1002200030952370332722303105B1F482E090E01D
:1002300013C023B130E02095309523703327232B52
:1002400059F481E090E008C080E090E005C084E0CF
:1002500090E002C083E090E08230910539F0833075
:10026000910539F422E120934901089522E0209379
:10027000490108950F931F93CF93DF938C01813031
:10028000910541F082309105A1F0892BE9F401E05C
:1002900010E01CC080914901E0915C01F0E0E80FA2
:1002A000F11DE25EFE4F8081833281F402E010E0B6
:1002B0000DC083B190E08095909587709927049741
:1002C00029F401E010E002C000E010E00130110567
:1002D000F1F00230110579F14BC08C2F0E948E0095
:1002E00080915C019E01280F311DC9018F719078AA
:1002F000992324F40197806E9F6F0196FC01E25EC2
:10030000FE4F808190E00E94AD00219602C0C1E0C6
:10031000D0E0C132D1050CF3809149010E948E00DA
:1003200080915C01803218F010925C0121C08F5FD7
:1003300080935C011DC081E080935C0110C00E942D
:100340008E00E0915C01F0E0E150FF4F808190E091
:100350000E94AD0080915C018F5F80935C01809171
:100360005C018E3160F382E08093490110925C0160
:10037000C801DF91CF911F910F91089560935801AB
:100380007093590180935A0190935B0160935D01D2
:1003900070935E0180935F019093600108958BE0FC
:1003A000809381008DE790E090938900809388008E
:1003B00082E080936F0010928500109284008091FB
:1003C000580190915901A0915A01B0915B0180931D
:1003D0005D0190935E01A0935F01B09360018FB7C0
:1003E00080688FBF089510928100089581E0809306
:1003F000610108951F920F920FB60F9211240BB650
:100400000F922F933F934F935F936F937F938F93AD
:100410009F93AF93BF93EF93FF9380915D01909172
:100420005E01A0915F01B09160010197A109B1093E
:1004300080935D0190935E01A0935F01B093600192
:10044000892B8A2B8B2B91F40E94F6018091580105
:1004500090915901A0915A01B0915B0180935D0187
:1004600090935E01A0935F01B0936001FF91EF91C3
:10047000BF91AF919F918F917F916F915F914F91BC
:100480003F912F910F900BBE0F900FBE0F901F90BA
:100490001895442349F021E030E002C0220F331FB9
:1004A0006A95E2F7822B089521E030E002C0220F26
:1004B000331F6A95E2F720958223089521E030E00A
:1004C00002C0220F331F6A95E2F78223089540E0AD
:1004D00064E08FEF0E94490288B9000086B160E0B5
:1004E00080950E945E02811180C086B161E0809596
:1004F0000E945E0281117BC086B162E080950E94FD
:100500005E02811176C086B163E080950E945E0232
:10051000811171C040E065E08FEF0E94490288B907
:10052000000086B160E080950E945E02811165C086
:1005300086B161E080950E945E02811160C086B143
:1005400062E080950E945E0281115BC086B163E02B
:1005500080950E945E02811156C040E066E08FEFF8
:100560000E94490288B9000086B160E080950E942F
:100570005E0281114AC086B161E080950E945E02F0
:10058000811145C086B162E080950E945E028111B2
:1005900040C086B163E080950E945E0281113BC03D
:1005A00040E067E08FEF0E94490288B9000086B101
:1005B00060E080950E945E0281112FC086B161E0EB
:1005C00080950E945E0281112AC086B162E080950A
:1005D0000E945E02811125C086B163E080950E9471
:1005E0005E028823F9F084E4089581E3089584E3AA
:1005F000089587E308958AE2089582E3089585E3E4
:10060000089588E3089580E3089583E3089586E3D9
:10061000089589E3089583E2089581E4089582E4CA
:10062000089583E408950F931F93CF93DF93B62F1C
:10063000A72FF82FE92F022F132FD42FC52F04C077
:10064000062F172FD82FC92F6B2F7A2F8F2F9E2F62
:10065000202F312F4D2F5C2F0E94D403B02FA12FBC
:10066000FD2FEC2F611571058105910549F7602F6C
:10067000712F8D2F9C2FDF91CF911F910F91089596
:10068000CF93DF9300D000D0CDB7DEB71FEF11B905
:1006900012B814B815B917B918B81AB91BB80E940E
:1006A0009800ADE6B1E0BA83A983E2E6F1E0FC830D
:1006B000EB831C934AE050E060E070E011964D93AC
:1006C0005D936D937C93149715964D935D936D9305
:1006D0007C93189781EF90E01A969C938E931997CC
:1006E000108384E190E0A0E0B0E081839283A38353
:1006F000B48385839683A783B0878AE391E092874A
:1007000081876AE070E080E090E00E94BE010E9474
:10071000CF01E12CF12C3CC0F701EE0FFF1F81E06F
:1007200090E08C0F9D1FE80FF91F00811181D80107
:1007300015964D915D916D917C91189711968D91C3
:100740009D910D90BC91A02D481759076A077B0712
:1007500081F4D8011996ED91FC911A978C91082E8D
:10076000000C990B0995F801808315821682178277
:100770001086F80185819681A781B0850196A11D1B
:10078000B11D85839683A783B087FFEFEF1AFF0A19
:1007900082E0E816F10408F4BFCF8091610188235C
:1007A000E1F310926101B5CFA1E21A2EAA1BBB1B87
:1007B000FD010DC0AA1FBB1FEE1FFF1FA217B3072D
:1007C000E407F50720F0A21BB30BE40BF50B661F43
:1007D000771F881F991F1A9469F760957095809507
:1007E00090959B01AC01BD01CF010895F894FFCF16
:1007F0004F68206E6F2C20596F75204C6F737421D9
:100800002020507265737320526573657400202038
:1008100020202020202020202020202020202320D5
:1008200020202020202020232020202020202020C5
:1008300020202020202020200002000000020000B4
:0C0840000000E0000000000001000000CB
:00000001FF
