:100000000C9446000C9465000C9465000C946500FB
:100010000C9465000C9465000C9465000C946500CC
:100020000C9465000C9465000C9465000C946500BC
:100030000C9465000C9465000C9465000C946500AC
:100040000C9465000C9465000C9465000C9465009C
:100050000C9465000C9465000C9465000C9465008C
:100060000C9465000C9465000C9465000C9465007C
:100070000C9465000C9465000C9465000C9465006C
:100080000C9465000C9465000C94650011241FBE4F
:10009000CFEFD0E4DEBFCDBF11E0A0E0B1E0E8E8F3
:1000A000F2E000E00BBF02C007900D92A031B10753
:1000B000D9F721E0A0E1B1E001C01D92A231B20761
:1000C000E1F70E947E000C9442010C940000CF9353
:1000D000C82F8A3019F48DE00E9467008091C0001B
:1000E00085FFFCCFC093C60080E090E0CF910895DB
:1000F000EAE7F0E08081806E8083089511B88FEF89
:1001000082B984B915B887B918B88AB91BB80E94E2
:1001100078008091780090917900909311018093FC
:100120001001EC01DD27C138D10518F481E085B953
:10013000F0CFC13AD10518F483E085B9EACFBE010A
:100140000D2E000C880B990B0E94E3006B017C01C3
:1001500020E030E040E353E40E94DC0018161CF07D
:1001600087E085B9D6CFC13CD10518F48FE085B9B9
:10017000D0CF20E030E040E553E4C701B6010E9453
:10018000DC0018161CF08FE185B9C3CFC13ED10544
:1001900018F48FE385B9BDCF20E030E040E753E4A9
:1001A000C701B6010E94DC0018161CF08FE785B964
:1001B000B0CF8FEF85B9ADCF0E941E0108F481E06A
:1001C0000895E89409C097FB3EF49095809570954A
:1001D00061957F4F8F4F9F4F9923A9F0F92F96E993
:1001E000BB279395F695879577956795B795F11108
:1001F000F8CFFAF4BB0F11F460FF1BC06F5F7F4FA5
:100200008F4F9F4F16C0882311F096E911C07723B6
:1002100021F09EE8872F762F05C0662371F096E8BF
:10022000862F70E060E02AF09A95660F771F881F8E
:10023000DAF7880F9695879597F90895990F000832
:10024000550FAA0BE0E8FEEF16161706E807F907A8
:10025000C0F012161306E407F50798F0621B730B43
:10026000840B950B39F40A2661F0232B242B252BC4
:1002700021F408950A2609F4A140A6958FEF811D67
:08028000811D0895F894FFCFE1
:10028800FF000000000200000000670000000000FE
:00000001FF
