:100000000C9446000C9465000C9465000C946500FB
:100010000C9465000C9465000C9465000C946500CC
:100020000C9465000C9465000C9465000C946500BC
:100030000C9465000C941C010C9465000C946500F4
:100040000C9465000C9465000C9465000C9465009C
:100050000C9465000C9465000C9465000C9465008C
:100060000C9465000C9465000C9465000C9465007C
:100070000C9465000C9465000C9465000C9465006C
:100080000C9465000C9465000C94650011241FBE4F
:10009000CFEFD0E4DEBFCDBF11E0A0E0B1E0EEE0F5
:1000A000F5E000E00BBF02C007900D92A233B1074C
:1000B000D9F721E0A2E3B1E001C01D92AA33B20753
:1000C000E1F70E9469020C9485020C94000040E064
:1000D00050E00CC000002F5F3F4F02C020E030E036
:1000E000273063E03607B4F34F5F5F4F4817590777
:1000F000ACF308959BB19F7B9BB988B98BB18068A5
:100100008BB900008BB18F778BB982E090E00E94B1
:100110006700089581E00E947A000895813120F4FB
:1001200081580E947A00089581550E947A000895AE
:1001300084E690E00E94670088E30E947A0086E0EF
:100140000E947A008FE00E947A0081E00E947A008B
:100150008AE090E00E94670008959BB190649BB98B
:1001600088B98BB180688BB900008BB18F778BB960
:1001700081E090E00E9467000895EF92FF920F9354
:100180001F93CF93DF93182FEB010E948A000EC0BC
:1001900001E0010F812F0E948E007E018FEFE81A8F
:1001A000F80A88810E94AD00102FE7018881811133
:1001B000EFCFDF91CF911F910F91FF90EF900895B6
:1001C000CF93C82F8A3019F48DE00E94E00080910F
:1001D000C00085FFFCCFC093C60080E090E0CF91C7
:1001E000089581E08093360108958BE0809381002B
:1001F0008DE790E0909389008093880082E080935F
:100200006F001092850010928400809100019091FF
:100210000101A0910201B0910301809332019093FA
:100220003301A0933401B09335018FB780688FBF3D
:1002300008951092810008951F920F920FB60F92A9
:1002400011240BB60F922F933F934F935F936F93AD
:100250007F938F939F93AF93BF93EF93FF9380917F
:10026000320190913301A0913401B0913501019791
:10027000A109B1098093320190933301A093340115
:10028000B0933501892B8A2B8B2B91F40E94F100BE
:100290008091000190910101A0910201B0910301B0
:1002A0008093320190933301A0933401B0933501D0
:1002B000FF91EF91BF91AF919F918F917F916F913E
:1002C0005F914F913F912F910F900BBE0F900FBEFA
:1002D0000F901F9018956093000170930101809317
:1002E0000201909303016093320170933301809374
:1002F000340190933501089580910401811106C065
:1003000063E171E081E00E94BD004BC0813029F4BF
:1003100065E171E00E94BD0044C0823031F467E1C4
:1003200071E081E00E94BD003CC0833031F469E19E
:1003300071E081E00E94BD0034C0843031F46BE193
:1003400071E081E00E94BD002CC0853031F46DE188
:1003500071E081E00E94BD0024C0863031F46FE17D
:1003600071E081E00E94BD001CC0873031F461E281
:1003700071E081E00E94BD0014C0883031F463E276
:1003800071E081E00E94BD000CC0893051F465E24B
:1003900071E081E00E94BD0067E271E082E00E94AE
:1003A000BD00809138019091390182309105D1F0E2
:1003B00028F4009749F0019771F044C0833091050B
:1003C00009F1049779F13EC081E090E09093390102
:1003D000809338013BC082E090E090933901809394
:1003E000380134C0009907C083E090E09093390150
:1003F000809338012BC082E090E090933901809384
:10040000380124C0009907C083E090E0909339013F
:10041000809338011BC084E090E090933901809371
:10042000380114C0009907C081E090E09093390131
:10043000809338010BC084E090E090933901809361
:10044000380104C0109239011092380180913801AE
:10045000909139018130910559F030F08230910549
:1004600051F0039739F1089585E0809304010895D0
:1004700081E085B908958091370181110EC085B161
:10048000843039F485B1869585B981E08093370150
:10049000089585B1880F85B9089585B1813031F40B
:1004A00085B1880F85B910923701089585B1869579
:1004B00085B9089585B1823031F4809104018F5F50
:1004C0008093040108958091040181508093040178
:1004D000089511B88FEF82B984B915B887B918B8E3
:1004E0008AB91BB86CE271E080E090E00E946B0179
:1004F0000E94F5000E9498000E947C0180913601C4
:0E0500008823E1F310923601F7CFF894FFCF75
:10050E0001000000050000000200000000E00000F5
:10051E000000003000310032003300340035003668
:10052E0000370038003900564943544F52592121A3
:02053E0021009A
:00000001FF
