:100000000C9446000C9465000C9465000C946500FB
:100010000C9465000C9465000C9465000C946500CC
:100020000C9465000C9465000C9465000C946500BC
:100030000C9465000C94A3000C9465000C9465006E
:100040000C9465000C9465000C9465000C9465009C
:100050000C9465000C9465000C9465000C9465008C
:100060000C9465000C9465000C9465000C9465007C
:100070000C9465000C9465000C9465000C9465006C
:100080000C9465000C9465000C94650011241FBE4F
:10009000CFEFD0E4DEBFCDBF11E0A0E0B1E0E8E4F7
:1000A000F8E000E00BBF02C007900D92A231B1074B
:1000B000D9F721E0A2E1B1E001C01D92AF31B20752
:1000C000E1F70E9476020C9422040C940000CF9376
:1000D000C82F8A3019F48DE00E9467008091C0001B
:1000E00085FFFCCFC093C60080E090E0CF910895DB
:1000F00081E08093160108958BE0809381008DE765
:1001000090E0909389008093880082E080936F0054
:10011000109285001092840080910001909101015D
:10012000A0910201B09103018093120190931301F9
:10013000A0931401B09315018FB780688FBF089505
:100140001092810008951F920F920FB60F92112402
:100150000BB60F922F933F934F935F936F937F93C1
:100160008F939F93AF93BF93EF93FF93809112016F
:1001700090911301A0911401B09115010197A1096B
:10018000B1098093120190931301A0931401B093CD
:100190001501892B8A2B8B2B91F40E94780080917A
:1001A000000190910101A0910201B091030180939F
:1001B000120190931301A0931401B0931501FF91C4
:1001C000EF91BF91AF919F918F917F916F915F91CF
:1001D0004F913F912F910F900BBE0F900FBE0F903C
:1001E0001F901895609300017093010180930201A4
:1001F0009093030160931201709313018093140193
:10020000909315010895CF92DF92EF92FF926B01C8
:100210007C016091190170911A0180911B019091EC
:100220001C01A70196010E948E02882309F458C080
:1002300020E030E0A901C701B6010E948E028111C1
:1002400006C0E1E9F0E080818870808305C0E1E9C3
:10025000F0E080818360808328E539E344E75FE351
:10026000C701B6010E948E0288233CF48FEF9FEFF6
:10027000909399008093980027C020E034E244EFE7
:1002800056E4C701B6010E94B00318162CF4109270
:1002900099001092980018C020E030E040E053E44C
:1002A000C701B6010E94B5039B01AC0160E074E296
:1002B00084EF9AE40E9493020E9405036150710941
:1002C000709399006093980010929500109294009A
:1002D000C0921901D0921A01E0921B01F0921C0108
:1002E000FF90EF90DF90CF90089580E4809390008E
:1002F0008BE08093910060E070E0CB010E940301ED
:1003000008951092900010929100089580911D011F
:1003100090911E018130910571F030F0823091058D
:10032000D1F0039761F13BC081E090E090931E0112
:1003300080931D0138C0009907C082E090E090933F
:100340001E0180931D012FC081E090E090931E015B
:1003500080931D0128C08091170190911801C297C8
:100360003CF083E090E090931E0180931D011BC040
:1003700082E090E090931E0180931D0114C0009BC9
:1003800007C081E090E090931E0180931D010BC097
:1003900083E090E090931E0180931D0104C01092B1
:1003A0001E0110921D0180911D0190911E0182304D
:1003B000910589F08330910509F48EC0019709F009
:1003C00094C060E070E0CB010E940301109218011C
:1003D00010921701089580911701909118018830AB
:1003E00091053CF460E070E084EC93E40E9403012A
:1003F00069C0803191053CF46BE774ED82E993E4C8
:100400000E9403015FC0833191053CF460E070ED10
:1004100082E094E40E94030155C08431910534F4D4
:1004200060E070E0CB010E9403014CC08731910570
:100430003CF460E070ED82E094E40E94030142C06D
:100440008831910534F460E070E0CB010E94030133
:1004500039C08B3191053CF460E070ED82E094E4AA
:100460000E9403012FC0833291053CF46BE774EDC9
:1004700082E993E40E94030125C0863291053CF491
:1004800060E070E08CED93E40E9403011BC08732B2
:10049000910534F460E070E0CB010E94030112C0CA
:1004A0008A3291053CF460E070E08CED93E40E94A8
:1004B000030108C0C29734F464EA70ED82E893E463
:1004C0000E94030180911701909118010196909369
:1004D000180180931701089560E070E0CB010E943D
:1004E00003011092180110921701089511B88FEFAF
:1004F00082B984B915B864E670E080E090E00E94AB
:10050000F2000E947C000E9475010E948601809189
:1005100016018823E1F310921601F7CF0E943B03E6
:1005200008F481E008950E94A7020C9476030E94CB
:100530006F0358F00E94680340F029F45F3F29F0F0
:100540000C945F0351110C94AA030C9465030E9450
:10055000870368F39923B1F3552391F3951B550B4A
:10056000BB27AA2762177307840738F09F5F5F4F86
:10057000220F331F441FAA1FA9F335D00E2E3AF0C5
:10058000E0E832D091505040E695001CCAF72BD0DD
:10059000FE2F29D0660F771F881FBB1F261737072E
:1005A0004807AB07B0E809F0BB0B802DBF01FF2760
:1005B00093585F4F3AF09E3F510578F00C945F03DB
:1005C0000C94AA035F3FE4F3983ED4F386957795A5
:1005D0006795B795F7959F5FC9F7880F911D969519
:1005E000879597F90895E1E0660F771F881FBB1F75
:1005F000621773078407BA0720F0621B730B840B22
:10060000BA0BEE1F88F7E09508950E940C036894DA
:10061000B1110C94AA0308950E948F0388F09F578C
:1006200098F0B92F9927B751B0F0E1F0660F771F16
:10063000881F991F1AF0BA95C9F714C0B13091F00C
:100640000E94A903B1E008950C94A903672F782FA5
:100650008827B85F39F0B93FCCF3869577956795D1
:10066000B395D9F73EF490958095709561957F4F3D
:100670008F4F9F4F0895990F0008550FAA0BE0E880
:10068000FEEF16161706E807F907C0F01216130654
:10069000E407F50798F0621B730B840B950B39F494
:1006A0000A2661F0232B242B252B21F408950A26FA
:1006B00009F4A140A6958FEF811D811D089597F93A
:1006C0009F6780E870E060E008959FEF80EC0895F8
:1006D00000240A9416161706180609060895002421
:1006E0000A9412161306140605060895092E03949B
:1006F000000C11F4882352F0BB0F40F4BF2B11F40F
:1007000060FF04C06F5F7F4F8F4F9F4F089557FD6D
:100710009058440F551F59F05F3F71F04795880F6F
:1007200097FB991F61F09F3F79F087950895121606
:1007300013061406551FF2CF4695F1DF08C01616B2
:1007400017061806991FF1CF869571056105089463
:100750000895E894BB2766277727CB0197F908957A
:100760000E943B0308F48FEF08950E94C8030C9485
:1007700076030E94680338F00E946F0320F09523EF
:1007800011F00C945F030C94650311240C94AA03DC
:100790000E94870370F3959FC1F3950F50E0551F9A
:1007A000629FF001729FBB27F00DB11D639FAA27C6
:1007B000F00DB11DAA1F649F6627B00DA11D661F15
:1007C000829F2227B00DA11D621F739FB00DA11D36
:1007D000621F839FA00D611D221F749F3327A00DF0
:1007E000611D231F849F600D211D822F762F6A2F8C
:1007F00011249F5750409AF0F1F088234AF0EE0FF1
:10080000FF1FBB1F661F771F881F91505040A9F71D
:100810009E3F510580F00C945F030C94AA035F3F48
:10082000E4F3983ED4F3869577956795B795F79559
:10083000E7959F5FC1F7FE2B880F911D96958795D1
:0808400097F90895F894FFCF29
:100848000100000000000002000000006700000036
:0208580000009E
:00000001FF
