:100000000C9446000C9465000C9465000C946500FB
:100010000C9465000C9465000C9465000C946500CC
:100020000C9465000C9465000C9465000C946500BC
:100030000C9465000C94A3000C9465000C9465006E
:100040000C9465000C9465000C9465000C9465009C
:100050000C9465000C9465000C9465000C9465008C
:100060000C9465000C9465000C9465000C9465007C
:100070000C9465000C9465000C9465000C9465006C
:100080000C9465000C9465000C94650011241FBE4F
:10009000CFEFD0E4DEBFCDBF11E0A0E0B1E0ECEBEC
:1000A000F5E000E00BBF02C007900D92A831B10748
:1000B000D9F721E0A8E1B1E001C01D92AA32B20750
:1000C000E1F70E948C020C94DC020C940000CF93A8
:1000D000C82F8A3019F48DE00E9467008091C0001B
:1000E00085FFFCCFC093C60080E090E0CF910895DB
:1000F00081E080931C0108958BE0809381008DE75F
:1001000090E0909389008093880082E080936F0054
:10011000109285001092840080910001909101015D
:10012000A0910201B09103018093180190931901ED
:10013000A0931A01B0931B018FB780688FBF0895F9
:100140001092810008951F920F920FB60F92112402
:100150000BB60F922F933F934F935F936F937F93C1
:100160008F939F93AF93BF93EF93FF938091180169
:1001700090911901A0911A01B0911B010197A10959
:10018000B1098093180190931901A0931A01B093BB
:100190001B01892B8A2B8B2B91F40E947800809174
:1001A000000190910101A0910201B091030180939F
:1001B000180190931901A0931A01B0931B01FF91AC
:1001C000EF91BF91AF919F918F917F916F915F91CF
:1001D0004F913F912F910F900BBE0F900FBE0F903C
:1001E0001F901895609300017093010180930201A4
:1001F00090930301609318017093190180931A0181
:1002000090931B01089580912201909123018130E8
:10021000910571F030F08230910589F00397B1F0CB
:100220001CC081E090E0909323018093220119C0CB
:1002300082E090E0909323018093220112C083E03A
:1002400090E090932301809322010BC081E090E025
:10025000909323018093220104C0109223011092F5
:10026000220180912201909123018230910549F071
:100270008330910551F0019759F481E08093210179
:10028000089582E080932101089584E08093210104
:10029000089580912401909125018130910559F0B4
:1002A00018F0029779F015C081E090E09093250155
:1002B0008093240112C082E090E090932501809306
:1002C00024010BC081E090E09093250180932401EC
:1002D00004C0109225011092240180912401909174
:1002E00025018130910519F0029721F008951092AF
:1002F0002001089581E080932001089580912601D6
:1003000090912701009719F0019741F00EC081E00C
:1003100090E090932701809326010BC081E090E04C
:10032000909327018093260104C010922701109218
:10033000260180912601909127010197A9F48091CF
:100340001F0190E1899F9001112490912001892F34
:1003500090E0880F991F880F991F880F991F822B93
:1003600090912101892B85B9089580912801909160
:1003700029018230910509F44BC028F4009769F0F7
:10038000019791F07FC08430910509F457C008F4BB
:100390005CC0059709F460C075C081E090E090935F
:1003A00029018093280172C080B190E080959095DA
:1003B00087709927049739F482E090E0909329019F
:1003C0008093280163C080B190E0809590958770FC
:1003D0009927019739F483E090E090932901809365
:1003E000280154C080B190E080959095877099273E
:1003F000029739F484E090E09093290180932801DA
:1004000045C081E090E090932901809328013EC08F
:1004100080B190E08095909587709927892B39F469
:1004200081E090E090932901809328012FC082E021
:1004300090E0909329018093280128C085E090E006
:10044000909329018093280121C085E090E090934A
:100450002901809328011AC080B190E08095909581
:1004600087709927892B39F481E090E090932901D6
:10047000809328010BC085E090E090932901809340
:10048000280104C0109229011092280180912801AE
:10049000909129018230910579F018F4019739F093
:1004A00008958330910541F1049771F108951092F8
:1004B0001F0110921E010895E0911D01F0E0EC5F14
:1004C000FE4F808120911E01821720F081E08093F1
:1004D0001F010CC030E090E0880F991F821793072E
:1004E0001CF010921F0102C010921E0180911E018B
:1004F0008F5F80931E01089580911D01882359F01C
:10050000815080931D01089580911D01863018F45B
:100510008F5F80931D01089511B88FEF82B984B960
:1005200015B861E070E080E090E00E94F2000E9467
:100530007C0010922301109222011092250110924A
:100540002401109227011092260110922901109285
:100550002801812C912C5401C12CD12C76018CE2E4
:10056000C81681E0D806E104F10428F00E940301D6
:10057000C12CD12C760188EE881683E09806A10460
:10058000B10428F00E944901812C912C54010E9451
:10059000B5010E947E0180911C018823E1F3109235
:1005A0001C018FEFC81AD80AE80AF80A8FEF881AD8
:0C05B000980AA80AB80AD3CFF894FFCF2D
:1005BC000100000001020304050600000002000017
:0805CC000000670000000000C0
:00000001FF
